{
	"Section 3/FundMe.sol": {
		"FundMe": {
			"abi": [
				{
					"inputs": [
						{
							"internalType": "address",
							"name": "funder",
							"type": "address"
						}
					],
					"name": "addressToAmountFunded",
					"outputs": [
						{
							"internalType": "uint256",
							"name": "amountFunded",
							"type": "uint256"
						}
					],
					"stateMutability": "view",
					"type": "function"
				},
				{
					"inputs": [],
					"name": "fund",
					"outputs": [],
					"stateMutability": "payable",
					"type": "function"
				},
				{
					"inputs": [
						{
							"internalType": "uint256",
							"name": "",
							"type": "uint256"
						}
					],
					"name": "funders",
					"outputs": [
						{
							"internalType": "address",
							"name": "",
							"type": "address"
						}
					],
					"stateMutability": "view",
					"type": "function"
				},
				{
					"inputs": [],
					"name": "getVersion",
					"outputs": [
						{
							"internalType": "uint256",
							"name": "",
							"type": "uint256"
						}
					],
					"stateMutability": "view",
					"type": "function"
				},
				{
					"inputs": [],
					"name": "minimumUsd",
					"outputs": [
						{
							"internalType": "uint256",
							"name": "",
							"type": "uint256"
						}
					],
					"stateMutability": "view",
					"type": "function"
				}
			],
			"devdoc": {
				"kind": "dev",
				"methods": {},
				"version": 1
			},
			"evm": {
				"assembly": "    /* \"Section 3/FundMe.sol\":224:911  contract FundMe {... */\n  mstore(0x40, 0x80)\n    /* \"Section 3/FundMe.sol\":314:318  5e18 */\n  0x4563918244f40000\n    /* \"Section 3/FundMe.sol\":286:318  uint256 public minimumUsd = 5e18 */\n  0x00\n  sstore\n    /* \"Section 3/FundMe.sol\":224:911  contract FundMe {... */\n  callvalue\n  dup1\n  iszero\n  tag_1\n  jumpi\n  revert(0x00, 0x00)\ntag_1:\n  pop\n  dataSize(sub_0)\n  dup1\n  dataOffset(sub_0)\n  0x00\n  codecopy\n  0x00\n  return\nstop\n\nsub_0: assembly {\n        /* \"Section 3/FundMe.sol\":224:911  contract FundMe {... */\n      mstore(0x40, 0x80)\n      jumpi(tag_1, lt(calldatasize, 0x04))\n      shr(0xe0, calldataload(0x00))\n      dup1\n      0x098de820\n      eq\n      tag_2\n      jumpi\n      dup1\n      0x0d8e6e2c\n      eq\n      tag_3\n      jumpi\n      dup1\n      0x3e47d6f3\n      eq\n      tag_4\n      jumpi\n      dup1\n      0xb60d4288\n      eq\n      tag_5\n      jumpi\n      dup1\n      0xdc0d3dff\n      eq\n      tag_6\n      jumpi\n    tag_1:\n      revert(0x00, 0x00)\n        /* \"Section 3/FundMe.sol\":286:318  uint256 public minimumUsd = 5e18 */\n    tag_2:\n      callvalue\n      dup1\n      iszero\n      tag_7\n      jumpi\n      revert(0x00, 0x00)\n    tag_7:\n      pop\n      tag_8\n      tag_9\n      jump\t// in\n    tag_8:\n      mload(0x40)\n      tag_10\n      swap2\n      swap1\n      tag_11\n      jump\t// in\n    tag_10:\n      mload(0x40)\n      dup1\n      swap2\n      sub\n      swap1\n      return\n        /* \"Section 3/FundMe.sol\":699:851  function getVersion() public view returns (uint256){ ... */\n    tag_3:\n      callvalue\n      dup1\n      iszero\n      tag_12\n      jumpi\n      revert(0x00, 0x00)\n    tag_12:\n      pop\n      tag_13\n      tag_14\n      jump\t// in\n    tag_13:\n      mload(0x40)\n      tag_15\n      swap2\n      swap1\n      tag_11\n      jump\t// in\n    tag_15:\n      mload(0x40)\n      dup1\n      swap2\n      sub\n      swap1\n      return\n        /* \"Section 3/FundMe.sol\":355:431  mapping(address funder => uint256 amountFunded) public addressToAmountFunded */\n    tag_4:\n      callvalue\n      dup1\n      iszero\n      tag_16\n      jumpi\n      revert(0x00, 0x00)\n    tag_16:\n      pop\n      tag_17\n      0x04\n      dup1\n      calldatasize\n      sub\n      dup2\n      add\n      swap1\n      tag_18\n      swap2\n      swap1\n      tag_19\n      jump\t// in\n    tag_18:\n      tag_20\n      jump\t// in\n    tag_17:\n      mload(0x40)\n      tag_21\n      swap2\n      swap1\n      tag_11\n      jump\t// in\n    tag_21:\n      mload(0x40)\n      dup1\n      swap2\n      sub\n      swap1\n      return\n        /* \"Section 3/FundMe.sol\":438:692  function fund() public payable {... */\n    tag_5:\n      tag_22\n      tag_23\n      jump\t// in\n    tag_22:\n      stop\n        /* \"Section 3/FundMe.sol\":325:349  address[] public funders */\n    tag_6:\n      callvalue\n      dup1\n      iszero\n      tag_24\n      jumpi\n      revert(0x00, 0x00)\n    tag_24:\n      pop\n      tag_25\n      0x04\n      dup1\n      calldatasize\n      sub\n      dup2\n      add\n      swap1\n      tag_26\n      swap2\n      swap1\n      tag_27\n      jump\t// in\n    tag_26:\n      tag_28\n      jump\t// in\n    tag_25:\n      mload(0x40)\n      tag_29\n      swap2\n      swap1\n      tag_30\n      jump\t// in\n    tag_29:\n      mload(0x40)\n      dup1\n      swap2\n      sub\n      swap1\n      return\n        /* \"Section 3/FundMe.sol\":286:318  uint256 public minimumUsd = 5e18 */\n    tag_9:\n      sload(0x00)\n      dup2\n      jump\t// out\n        /* \"Section 3/FundMe.sol\":699:851  function getVersion() public view returns (uint256){ ... */\n    tag_14:\n        /* \"Section 3/FundMe.sol\":742:749  uint256 */\n      0x00\n        /* \"Section 3/FundMe.sol\":791:833  0x694AA1769357215DE4FAC081bf1f309aDC325306 */\n      0x694aa1769357215de4fac081bf1f309adc325306\n        /* \"Section 3/FundMe.sol\":769:842  AggregatorV3Interface(0x694AA1769357215DE4FAC081bf1f309aDC325306).version */\n      0xffffffffffffffffffffffffffffffffffffffff\n      and\n      0x54fd4d50\n        /* \"Section 3/FundMe.sol\":769:844  AggregatorV3Interface(0x694AA1769357215DE4FAC081bf1f309aDC325306).version() */\n      mload(0x40)\n      dup2\n      0xffffffff\n      and\n      0xe0\n      shl\n      dup2\n      mstore\n      0x04\n      add\n      0x20\n      mload(0x40)\n      dup1\n      dup4\n      sub\n      dup2\n      dup7\n      gas\n      staticcall\n      iszero\n      dup1\n      iszero\n      tag_33\n      jumpi\n      returndatacopy(0x00, 0x00, returndatasize)\n      revert(0x00, returndatasize)\n    tag_33:\n      pop\n      pop\n      pop\n      pop\n      mload(0x40)\n      returndatasize\n      not(0x1f)\n      0x1f\n      dup3\n      add\n      and\n      dup3\n      add\n      dup1\n      0x40\n      mstore\n      pop\n      dup2\n      add\n      swap1\n      tag_34\n      swap2\n      swap1\n      tag_35\n      jump\t// in\n    tag_34:\n        /* \"Section 3/FundMe.sol\":762:844  return AggregatorV3Interface(0x694AA1769357215DE4FAC081bf1f309aDC325306).version() */\n      swap1\n      pop\n        /* \"Section 3/FundMe.sol\":699:851  function getVersion() public view returns (uint256){ ... */\n      swap1\n      jump\t// out\n        /* \"Section 3/FundMe.sol\":355:431  mapping(address funder => uint256 amountFunded) public addressToAmountFunded */\n    tag_20:\n      mstore(0x20, 0x02)\n      dup1\n      0x00\n      mstore\n      keccak256(0x00, 0x40)\n      0x00\n      swap2\n      pop\n      swap1\n      pop\n      sload\n      dup2\n      jump\t// out\n        /* \"Section 3/FundMe.sol\":438:692  function fund() public payable {... */\n    tag_23:\n        /* \"Section 3/FundMe.sol\":520:530  minimumUsd */\n      sload(0x00)\n        /* \"Section 3/FundMe.sol\":487:516  msg.value.getConversionRate() */\n      tag_37\n        /* \"Section 3/FundMe.sol\":487:496  msg.value */\n      callvalue\n        /* \"Section 3/FundMe.sol\":487:514  msg.value.getConversionRate */\n      tag_38\n        /* \"Section 3/FundMe.sol\":487:516  msg.value.getConversionRate() */\n      jump\t// in\n    tag_37:\n        /* \"Section 3/FundMe.sol\":487:530  msg.value.getConversionRate() >= minimumUsd */\n      lt\n      iszero\n        /* \"Section 3/FundMe.sol\":479:558  require(msg.value.getConversionRate() >= minimumUsd, \"Didn't send enough ETH!\") */\n      tag_39\n      jumpi\n      mload(0x40)\n      0x08c379a000000000000000000000000000000000000000000000000000000000\n      dup2\n      mstore\n      0x04\n      add\n      tag_40\n      swap1\n      tag_41\n      jump\t// in\n    tag_40:\n      mload(0x40)\n      dup1\n      swap2\n      sub\n      swap1\n      revert\n    tag_39:\n        /* \"Section 3/FundMe.sol\":568:575  funders */\n      0x01\n        /* \"Section 3/FundMe.sol\":581:591  msg.sender */\n      caller\n        /* \"Section 3/FundMe.sol\":568:592  funders.push(msg.sender) */\n      swap1\n      dup1\n      0x01\n      dup2\n      sload\n      add\n      dup1\n      dup3\n      sstore\n      dup1\n      swap2\n      pop\n      pop\n      0x01\n      swap1\n      sub\n      swap1\n      0x00\n      mstore\n      keccak256(0x00, 0x20)\n      add\n      0x00\n      swap1\n      swap2\n      swap1\n      swap2\n      swap1\n      swap2\n      0x0100\n      exp\n      dup2\n      sload\n      dup2\n      0xffffffffffffffffffffffffffffffffffffffff\n      mul\n      not\n      and\n      swap1\n      dup4\n      0xffffffffffffffffffffffffffffffffffffffff\n      and\n      mul\n      or\n      swap1\n      sstore\n      pop\n        /* \"Section 3/FundMe.sol\":675:684  msg.value */\n      callvalue\n        /* \"Section 3/FundMe.sol\":639:660  addressToAmountFunded */\n      0x02\n        /* \"Section 3/FundMe.sol\":639:672  addressToAmountFunded[msg.sender] */\n      0x00\n        /* \"Section 3/FundMe.sol\":661:671  msg.sender */\n      caller\n        /* \"Section 3/FundMe.sol\":639:672  addressToAmountFunded[msg.sender] */\n      0xffffffffffffffffffffffffffffffffffffffff\n      and\n      0xffffffffffffffffffffffffffffffffffffffff\n      and\n      dup2\n      mstore\n      0x20\n      add\n      swap1\n      dup2\n      mstore\n      0x20\n      add\n      0x00\n      keccak256\n      sload\n        /* \"Section 3/FundMe.sol\":639:684  addressToAmountFunded[msg.sender] + msg.value */\n      tag_43\n      swap2\n      swap1\n      tag_44\n      jump\t// in\n    tag_43:\n        /* \"Section 3/FundMe.sol\":603:624  addressToAmountFunded */\n      0x02\n        /* \"Section 3/FundMe.sol\":603:636  addressToAmountFunded[msg.sender] */\n      0x00\n        /* \"Section 3/FundMe.sol\":625:635  msg.sender */\n      caller\n        /* \"Section 3/FundMe.sol\":603:636  addressToAmountFunded[msg.sender] */\n      0xffffffffffffffffffffffffffffffffffffffff\n      and\n      0xffffffffffffffffffffffffffffffffffffffff\n      and\n      dup2\n      mstore\n      0x20\n      add\n      swap1\n      dup2\n      mstore\n      0x20\n      add\n      0x00\n      keccak256\n        /* \"Section 3/FundMe.sol\":603:684  addressToAmountFunded[msg.sender] = addressToAmountFunded[msg.sender] + msg.value */\n      dup2\n      swap1\n      sstore\n      pop\n        /* \"Section 3/FundMe.sol\":438:692  function fund() public payable {... */\n      jump\t// out\n        /* \"Section 3/FundMe.sol\":325:349  address[] public funders */\n    tag_28:\n      0x01\n      dup2\n      dup2\n      sload\n      dup2\n      lt\n      tag_45\n      jumpi\n      0x00\n      dup1\n      revert\n    tag_45:\n      swap1\n      0x00\n      mstore\n      keccak256(0x00, 0x20)\n      add\n      0x00\n      swap2\n      pop\n      sload\n      swap1\n      0x0100\n      exp\n      swap1\n      div\n      0xffffffffffffffffffffffffffffffffffffffff\n      and\n      dup2\n      jump\t// out\n        /* \"Section 3/PriceConverter.sol\":473:692  function getConversionRate(uint256 ethAmount) internal view returns(uint256){ ... */\n    tag_38:\n        /* \"Section 3/PriceConverter.sol\":541:548  uint256 */\n      0x00\n        /* \"Section 3/PriceConverter.sol\":560:576  uint256 ethPrice */\n      0x00\n        /* \"Section 3/PriceConverter.sol\":579:589  getPrice() */\n      tag_48\n        /* \"Section 3/PriceConverter.sol\":579:587  getPrice */\n      tag_49\n        /* \"Section 3/PriceConverter.sol\":579:589  getPrice() */\n      jump\t// in\n    tag_48:\n        /* \"Section 3/PriceConverter.sol\":560:589  uint256 ethPrice = getPrice() */\n      swap1\n      pop\n        /* \"Section 3/PriceConverter.sol\":599:621  uint256 ethAmountInUsd */\n      0x00\n        /* \"Section 3/PriceConverter.sol\":649:653  1e18 */\n      0x0de0b6b3a7640000\n        /* \"Section 3/PriceConverter.sol\":636:645  ethAmount */\n      dup5\n        /* \"Section 3/PriceConverter.sol\":625:633  ethPrice */\n      dup4\n        /* \"Section 3/PriceConverter.sol\":625:645  ethPrice * ethAmount */\n      tag_50\n      swap2\n      swap1\n      tag_51\n      jump\t// in\n    tag_50:\n        /* \"Section 3/PriceConverter.sol\":624:653  (ethPrice * ethAmount) / 1e18 */\n      tag_52\n      swap2\n      swap1\n      tag_53\n      jump\t// in\n    tag_52:\n        /* \"Section 3/PriceConverter.sol\":599:653  uint256 ethAmountInUsd = (ethPrice * ethAmount) / 1e18 */\n      swap1\n      pop\n        /* \"Section 3/PriceConverter.sol\":670:684  ethAmountInUsd */\n      dup1\n        /* \"Section 3/PriceConverter.sol\":663:684  return ethAmountInUsd */\n      swap3\n      pop\n      pop\n      pop\n        /* \"Section 3/PriceConverter.sol\":473:692  function getConversionRate(uint256 ethAmount) internal view returns(uint256){ ... */\n      swap2\n      swap1\n      pop\n      jump\t// out\n        /* \"Section 3/PriceConverter.sol\":200:468  function getPrice() internal view returns (uint256){ ... */\n    tag_49:\n        /* \"Section 3/PriceConverter.sol\":243:250  uint256 */\n      0x00\n        /* \"Section 3/PriceConverter.sol\":263:294  AggregatorV3Interface priceFeed */\n      0x00\n        /* \"Section 3/PriceConverter.sol\":319:361  0x694AA1769357215DE4FAC081bf1f309aDC325306 */\n      0x694aa1769357215de4fac081bf1f309adc325306\n        /* \"Section 3/PriceConverter.sol\":263:362  AggregatorV3Interface priceFeed = AggregatorV3Interface(0x694AA1769357215DE4FAC081bf1f309aDC325306) */\n      swap1\n      pop\n        /* \"Section 3/PriceConverter.sol\":375:387  int256 price */\n      0x00\n        /* \"Section 3/PriceConverter.sol\":394:403  priceFeed */\n      dup2\n        /* \"Section 3/PriceConverter.sol\":394:419  priceFeed.latestRoundData */\n      0xffffffffffffffffffffffffffffffffffffffff\n      and\n      0xfeaf968c\n        /* \"Section 3/PriceConverter.sol\":394:421  priceFeed.latestRoundData() */\n      mload(0x40)\n      dup2\n      0xffffffff\n      and\n      0xe0\n      shl\n      dup2\n      mstore\n      0x04\n      add\n      0xa0\n      mload(0x40)\n      dup1\n      dup4\n      sub\n      dup2\n      dup7\n      gas\n      staticcall\n      iszero\n      dup1\n      iszero\n      tag_56\n      jumpi\n      returndatacopy(0x00, 0x00, returndatasize)\n      revert(0x00, returndatasize)\n    tag_56:\n      pop\n      pop\n      pop\n      pop\n      mload(0x40)\n      returndatasize\n      not(0x1f)\n      0x1f\n      dup3\n      add\n      and\n      dup3\n      add\n      dup1\n      0x40\n      mstore\n      pop\n      dup2\n      add\n      swap1\n      tag_57\n      swap2\n      swap1\n      tag_58\n      jump\t// in\n    tag_57:\n        /* \"Section 3/PriceConverter.sol\":372:421  (, int256 price,,,) = priceFeed.latestRoundData() */\n      pop\n      pop\n      pop\n      swap2\n      pop\n      pop\n        /* \"Section 3/PriceConverter.sol\":456:460  1e10 */\n      0x02540be400\n        /* \"Section 3/PriceConverter.sol\":448:453  price */\n      dup2\n        /* \"Section 3/PriceConverter.sol\":448:460  price * 1e10 */\n      tag_59\n      swap2\n      swap1\n      tag_60\n      jump\t// in\n    tag_59:\n        /* \"Section 3/PriceConverter.sol\":432:461  return  uint256(price * 1e10) */\n      swap3\n      pop\n      pop\n      pop\n        /* \"Section 3/PriceConverter.sol\":200:468  function getPrice() internal view returns (uint256){ ... */\n      swap1\n      jump\t// out\n        /* \"#utility.yul\":7:84   */\n    tag_61:\n        /* \"#utility.yul\":44:51   */\n      0x00\n        /* \"#utility.yul\":73:78   */\n      dup2\n        /* \"#utility.yul\":62:78   */\n      swap1\n      pop\n        /* \"#utility.yul\":7:84   */\n      swap2\n      swap1\n      pop\n      jump\t// out\n        /* \"#utility.yul\":90:208   */\n    tag_62:\n        /* \"#utility.yul\":177:201   */\n      tag_88\n        /* \"#utility.yul\":195:200   */\n      dup2\n        /* \"#utility.yul\":177:201   */\n      tag_61\n      jump\t// in\n    tag_88:\n        /* \"#utility.yul\":172:175   */\n      dup3\n        /* \"#utility.yul\":165:202   */\n      mstore\n        /* \"#utility.yul\":90:208   */\n      pop\n      pop\n      jump\t// out\n        /* \"#utility.yul\":214:436   */\n    tag_11:\n        /* \"#utility.yul\":307:311   */\n      0x00\n        /* \"#utility.yul\":345:347   */\n      0x20\n        /* \"#utility.yul\":334:343   */\n      dup3\n        /* \"#utility.yul\":330:348   */\n      add\n        /* \"#utility.yul\":322:348   */\n      swap1\n      pop\n        /* \"#utility.yul\":358:429   */\n      tag_90\n        /* \"#utility.yul\":426:427   */\n      0x00\n        /* \"#utility.yul\":415:424   */\n      dup4\n        /* \"#utility.yul\":411:428   */\n      add\n        /* \"#utility.yul\":402:408   */\n      dup5\n        /* \"#utility.yul\":358:429   */\n      tag_62\n      jump\t// in\n    tag_90:\n        /* \"#utility.yul\":214:436   */\n      swap3\n      swap2\n      pop\n      pop\n      jump\t// out\n        /* \"#utility.yul\":523:640   */\n    tag_64:\n        /* \"#utility.yul\":632:633   */\n      0x00\n        /* \"#utility.yul\":629:630   */\n      0x00\n        /* \"#utility.yul\":622:634   */\n      revert\n        /* \"#utility.yul\":769:895   */\n    tag_66:\n        /* \"#utility.yul\":806:813   */\n      0x00\n        /* \"#utility.yul\":846:888   */\n      0xffffffffffffffffffffffffffffffffffffffff\n        /* \"#utility.yul\":839:844   */\n      dup3\n        /* \"#utility.yul\":835:889   */\n      and\n        /* \"#utility.yul\":824:889   */\n      swap1\n      pop\n        /* \"#utility.yul\":769:895   */\n      swap2\n      swap1\n      pop\n      jump\t// out\n        /* \"#utility.yul\":901:997   */\n    tag_67:\n        /* \"#utility.yul\":938:945   */\n      0x00\n        /* \"#utility.yul\":967:991   */\n      tag_96\n        /* \"#utility.yul\":985:990   */\n      dup3\n        /* \"#utility.yul\":967:991   */\n      tag_66\n      jump\t// in\n    tag_96:\n        /* \"#utility.yul\":956:991   */\n      swap1\n      pop\n        /* \"#utility.yul\":901:997   */\n      swap2\n      swap1\n      pop\n      jump\t// out\n        /* \"#utility.yul\":1003:1125   */\n    tag_68:\n        /* \"#utility.yul\":1076:1100   */\n      tag_98\n        /* \"#utility.yul\":1094:1099   */\n      dup2\n        /* \"#utility.yul\":1076:1100   */\n      tag_67\n      jump\t// in\n    tag_98:\n        /* \"#utility.yul\":1069:1074   */\n      dup2\n        /* \"#utility.yul\":1066:1101   */\n      eq\n        /* \"#utility.yul\":1056:1119   */\n      tag_99\n      jumpi\n        /* \"#utility.yul\":1115:1116   */\n      0x00\n        /* \"#utility.yul\":1112:1113   */\n      0x00\n        /* \"#utility.yul\":1105:1117   */\n      revert\n        /* \"#utility.yul\":1056:1119   */\n    tag_99:\n        /* \"#utility.yul\":1003:1125   */\n      pop\n      jump\t// out\n        /* \"#utility.yul\":1131:1270   */\n    tag_69:\n        /* \"#utility.yul\":1177:1182   */\n      0x00\n        /* \"#utility.yul\":1215:1221   */\n      dup2\n        /* \"#utility.yul\":1202:1222   */\n      calldataload\n        /* \"#utility.yul\":1193:1222   */\n      swap1\n      pop\n        /* \"#utility.yul\":1231:1264   */\n      tag_101\n        /* \"#utility.yul\":1258:1263   */\n      dup2\n        /* \"#utility.yul\":1231:1264   */\n      tag_68\n      jump\t// in\n    tag_101:\n        /* \"#utility.yul\":1131:1270   */\n      swap3\n      swap2\n      pop\n      pop\n      jump\t// out\n        /* \"#utility.yul\":1276:1605   */\n    tag_19:\n        /* \"#utility.yul\":1335:1341   */\n      0x00\n        /* \"#utility.yul\":1384:1386   */\n      0x20\n        /* \"#utility.yul\":1372:1381   */\n      dup3\n        /* \"#utility.yul\":1363:1370   */\n      dup5\n        /* \"#utility.yul\":1359:1382   */\n      sub\n        /* \"#utility.yul\":1355:1387   */\n      slt\n        /* \"#utility.yul\":1352:1471   */\n      iszero\n      tag_103\n      jumpi\n        /* \"#utility.yul\":1390:1469   */\n      tag_104\n      tag_64\n      jump\t// in\n    tag_104:\n        /* \"#utility.yul\":1352:1471   */\n    tag_103:\n        /* \"#utility.yul\":1510:1511   */\n      0x00\n        /* \"#utility.yul\":1535:1588   */\n      tag_105\n        /* \"#utility.yul\":1580:1587   */\n      dup5\n        /* \"#utility.yul\":1571:1577   */\n      dup3\n        /* \"#utility.yul\":1560:1569   */\n      dup6\n        /* \"#utility.yul\":1556:1578   */\n      add\n        /* \"#utility.yul\":1535:1588   */\n      tag_69\n      jump\t// in\n    tag_105:\n        /* \"#utility.yul\":1525:1588   */\n      swap2\n      pop\n        /* \"#utility.yul\":1481:1598   */\n      pop\n        /* \"#utility.yul\":1276:1605   */\n      swap3\n      swap2\n      pop\n      pop\n      jump\t// out\n        /* \"#utility.yul\":1611:1733   */\n    tag_70:\n        /* \"#utility.yul\":1684:1708   */\n      tag_107\n        /* \"#utility.yul\":1702:1707   */\n      dup2\n        /* \"#utility.yul\":1684:1708   */\n      tag_61\n      jump\t// in\n    tag_107:\n        /* \"#utility.yul\":1677:1682   */\n      dup2\n        /* \"#utility.yul\":1674:1709   */\n      eq\n        /* \"#utility.yul\":1664:1727   */\n      tag_108\n      jumpi\n        /* \"#utility.yul\":1723:1724   */\n      0x00\n        /* \"#utility.yul\":1720:1721   */\n      0x00\n        /* \"#utility.yul\":1713:1725   */\n      revert\n        /* \"#utility.yul\":1664:1727   */\n    tag_108:\n        /* \"#utility.yul\":1611:1733   */\n      pop\n      jump\t// out\n        /* \"#utility.yul\":1739:1878   */\n    tag_71:\n        /* \"#utility.yul\":1785:1790   */\n      0x00\n        /* \"#utility.yul\":1823:1829   */\n      dup2\n        /* \"#utility.yul\":1810:1830   */\n      calldataload\n        /* \"#utility.yul\":1801:1830   */\n      swap1\n      pop\n        /* \"#utility.yul\":1839:1872   */\n      tag_110\n        /* \"#utility.yul\":1866:1871   */\n      dup2\n        /* \"#utility.yul\":1839:1872   */\n      tag_70\n      jump\t// in\n    tag_110:\n        /* \"#utility.yul\":1739:1878   */\n      swap3\n      swap2\n      pop\n      pop\n      jump\t// out\n        /* \"#utility.yul\":1884:2213   */\n    tag_27:\n        /* \"#utility.yul\":1943:1949   */\n      0x00\n        /* \"#utility.yul\":1992:1994   */\n      0x20\n        /* \"#utility.yul\":1980:1989   */\n      dup3\n        /* \"#utility.yul\":1971:1978   */\n      dup5\n        /* \"#utility.yul\":1967:1990   */\n      sub\n        /* \"#utility.yul\":1963:1995   */\n      slt\n        /* \"#utility.yul\":1960:2079   */\n      iszero\n      tag_112\n      jumpi\n        /* \"#utility.yul\":1998:2077   */\n      tag_113\n      tag_64\n      jump\t// in\n    tag_113:\n        /* \"#utility.yul\":1960:2079   */\n    tag_112:\n        /* \"#utility.yul\":2118:2119   */\n      0x00\n        /* \"#utility.yul\":2143:2196   */\n      tag_114\n        /* \"#utility.yul\":2188:2195   */\n      dup5\n        /* \"#utility.yul\":2179:2185   */\n      dup3\n        /* \"#utility.yul\":2168:2177   */\n      dup6\n        /* \"#utility.yul\":2164:2186   */\n      add\n        /* \"#utility.yul\":2143:2196   */\n      tag_71\n      jump\t// in\n    tag_114:\n        /* \"#utility.yul\":2133:2196   */\n      swap2\n      pop\n        /* \"#utility.yul\":2089:2206   */\n      pop\n        /* \"#utility.yul\":1884:2213   */\n      swap3\n      swap2\n      pop\n      pop\n      jump\t// out\n        /* \"#utility.yul\":2219:2337   */\n    tag_72:\n        /* \"#utility.yul\":2306:2330   */\n      tag_116\n        /* \"#utility.yul\":2324:2329   */\n      dup2\n        /* \"#utility.yul\":2306:2330   */\n      tag_67\n      jump\t// in\n    tag_116:\n        /* \"#utility.yul\":2301:2304   */\n      dup3\n        /* \"#utility.yul\":2294:2331   */\n      mstore\n        /* \"#utility.yul\":2219:2337   */\n      pop\n      pop\n      jump\t// out\n        /* \"#utility.yul\":2343:2565   */\n    tag_30:\n        /* \"#utility.yul\":2436:2440   */\n      0x00\n        /* \"#utility.yul\":2474:2476   */\n      0x20\n        /* \"#utility.yul\":2463:2472   */\n      dup3\n        /* \"#utility.yul\":2459:2477   */\n      add\n        /* \"#utility.yul\":2451:2477   */\n      swap1\n      pop\n        /* \"#utility.yul\":2487:2558   */\n      tag_118\n        /* \"#utility.yul\":2555:2556   */\n      0x00\n        /* \"#utility.yul\":2544:2553   */\n      dup4\n        /* \"#utility.yul\":2540:2557   */\n      add\n        /* \"#utility.yul\":2531:2537   */\n      dup5\n        /* \"#utility.yul\":2487:2558   */\n      tag_72\n      jump\t// in\n    tag_118:\n        /* \"#utility.yul\":2343:2565   */\n      swap3\n      swap2\n      pop\n      pop\n      jump\t// out\n        /* \"#utility.yul\":2571:2714   */\n    tag_73:\n        /* \"#utility.yul\":2628:2633   */\n      0x00\n        /* \"#utility.yul\":2659:2665   */\n      dup2\n        /* \"#utility.yul\":2653:2666   */\n      mload\n        /* \"#utility.yul\":2644:2666   */\n      swap1\n      pop\n        /* \"#utility.yul\":2675:2708   */\n      tag_120\n        /* \"#utility.yul\":2702:2707   */\n      dup2\n        /* \"#utility.yul\":2675:2708   */\n      tag_70\n      jump\t// in\n    tag_120:\n        /* \"#utility.yul\":2571:2714   */\n      swap3\n      swap2\n      pop\n      pop\n      jump\t// out\n        /* \"#utility.yul\":2720:3071   */\n    tag_35:\n        /* \"#utility.yul\":2790:2796   */\n      0x00\n        /* \"#utility.yul\":2839:2841   */\n      0x20\n        /* \"#utility.yul\":2827:2836   */\n      dup3\n        /* \"#utility.yul\":2818:2825   */\n      dup5\n        /* \"#utility.yul\":2814:2837   */\n      sub\n        /* \"#utility.yul\":2810:2842   */\n      slt\n        /* \"#utility.yul\":2807:2926   */\n      iszero\n      tag_122\n      jumpi\n        /* \"#utility.yul\":2845:2924   */\n      tag_123\n      tag_64\n      jump\t// in\n    tag_123:\n        /* \"#utility.yul\":2807:2926   */\n    tag_122:\n        /* \"#utility.yul\":2965:2966   */\n      0x00\n        /* \"#utility.yul\":2990:3054   */\n      tag_124\n        /* \"#utility.yul\":3046:3053   */\n      dup5\n        /* \"#utility.yul\":3037:3043   */\n      dup3\n        /* \"#utility.yul\":3026:3035   */\n      dup6\n        /* \"#utility.yul\":3022:3044   */\n      add\n        /* \"#utility.yul\":2990:3054   */\n      tag_73\n      jump\t// in\n    tag_124:\n        /* \"#utility.yul\":2980:3054   */\n      swap2\n      pop\n        /* \"#utility.yul\":2936:3064   */\n      pop\n        /* \"#utility.yul\":2720:3071   */\n      swap3\n      swap2\n      pop\n      pop\n      jump\t// out\n        /* \"#utility.yul\":3077:3246   */\n    tag_74:\n        /* \"#utility.yul\":3161:3172   */\n      0x00\n        /* \"#utility.yul\":3195:3201   */\n      dup3\n        /* \"#utility.yul\":3190:3193   */\n      dup3\n        /* \"#utility.yul\":3183:3202   */\n      mstore\n        /* \"#utility.yul\":3235:3239   */\n      0x20\n        /* \"#utility.yul\":3230:3233   */\n      dup3\n        /* \"#utility.yul\":3226:3240   */\n      add\n        /* \"#utility.yul\":3211:3240   */\n      swap1\n      pop\n        /* \"#utility.yul\":3077:3246   */\n      swap3\n      swap2\n      pop\n      pop\n      jump\t// out\n        /* \"#utility.yul\":3252:3425   */\n    tag_75:\n        /* \"#utility.yul\":3392:3417   */\n      0x4469646e27742073656e6420656e6f7567682045544821000000000000000000\n        /* \"#utility.yul\":3388:3389   */\n      0x00\n        /* \"#utility.yul\":3380:3386   */\n      dup3\n        /* \"#utility.yul\":3376:3390   */\n      add\n        /* \"#utility.yul\":3369:3418   */\n      mstore\n        /* \"#utility.yul\":3252:3425   */\n      pop\n      jump\t// out\n        /* \"#utility.yul\":3431:3797   */\n    tag_76:\n        /* \"#utility.yul\":3573:3576   */\n      0x00\n        /* \"#utility.yul\":3594:3661   */\n      tag_128\n        /* \"#utility.yul\":3658:3660   */\n      0x17\n        /* \"#utility.yul\":3653:3656   */\n      dup4\n        /* \"#utility.yul\":3594:3661   */\n      tag_74\n      jump\t// in\n    tag_128:\n        /* \"#utility.yul\":3587:3661   */\n      swap2\n      pop\n        /* \"#utility.yul\":3670:3763   */\n      tag_129\n        /* \"#utility.yul\":3759:3762   */\n      dup3\n        /* \"#utility.yul\":3670:3763   */\n      tag_75\n      jump\t// in\n    tag_129:\n        /* \"#utility.yul\":3788:3790   */\n      0x20\n        /* \"#utility.yul\":3783:3786   */\n      dup3\n        /* \"#utility.yul\":3779:3791   */\n      add\n        /* \"#utility.yul\":3772:3791   */\n      swap1\n      pop\n        /* \"#utility.yul\":3431:3797   */\n      swap2\n      swap1\n      pop\n      jump\t// out\n        /* \"#utility.yul\":3803:4222   */\n    tag_41:\n        /* \"#utility.yul\":3969:3973   */\n      0x00\n        /* \"#utility.yul\":4007:4009   */\n      0x20\n        /* \"#utility.yul\":3996:4005   */\n      dup3\n        /* \"#utility.yul\":3992:4010   */\n      add\n        /* \"#utility.yul\":3984:4010   */\n      swap1\n      pop\n        /* \"#utility.yul\":4056:4065   */\n      dup2\n        /* \"#utility.yul\":4050:4054   */\n      dup2\n        /* \"#utility.yul\":4046:4066   */\n      sub\n        /* \"#utility.yul\":4042:4043   */\n      0x00\n        /* \"#utility.yul\":4031:4040   */\n      dup4\n        /* \"#utility.yul\":4027:4044   */\n      add\n        /* \"#utility.yul\":4020:4067   */\n      mstore\n        /* \"#utility.yul\":4084:4215   */\n      tag_131\n        /* \"#utility.yul\":4210:4214   */\n      dup2\n        /* \"#utility.yul\":4084:4215   */\n      tag_76\n      jump\t// in\n    tag_131:\n        /* \"#utility.yul\":4076:4215   */\n      swap1\n      pop\n        /* \"#utility.yul\":3803:4222   */\n      swap2\n      swap1\n      pop\n      jump\t// out\n        /* \"#utility.yul\":4228:4408   */\n    tag_77:\n        /* \"#utility.yul\":4276:4353   */\n      0x4e487b7100000000000000000000000000000000000000000000000000000000\n        /* \"#utility.yul\":4273:4274   */\n      0x00\n        /* \"#utility.yul\":4266:4354   */\n      mstore\n        /* \"#utility.yul\":4373:4377   */\n      0x11\n        /* \"#utility.yul\":4370:4371   */\n      0x04\n        /* \"#utility.yul\":4363:4378   */\n      mstore\n        /* \"#utility.yul\":4397:4401   */\n      0x24\n        /* \"#utility.yul\":4394:4395   */\n      0x00\n        /* \"#utility.yul\":4387:4402   */\n      revert\n        /* \"#utility.yul\":4414:4605   */\n    tag_44:\n        /* \"#utility.yul\":4454:4457   */\n      0x00\n        /* \"#utility.yul\":4473:4493   */\n      tag_134\n        /* \"#utility.yul\":4491:4492   */\n      dup3\n        /* \"#utility.yul\":4473:4493   */\n      tag_61\n      jump\t// in\n    tag_134:\n        /* \"#utility.yul\":4468:4493   */\n      swap2\n      pop\n        /* \"#utility.yul\":4507:4527   */\n      tag_135\n        /* \"#utility.yul\":4525:4526   */\n      dup4\n        /* \"#utility.yul\":4507:4527   */\n      tag_61\n      jump\t// in\n    tag_135:\n        /* \"#utility.yul\":4502:4527   */\n      swap3\n      pop\n        /* \"#utility.yul\":4550:4551   */\n      dup3\n        /* \"#utility.yul\":4547:4548   */\n      dup3\n        /* \"#utility.yul\":4543:4552   */\n      add\n        /* \"#utility.yul\":4536:4552   */\n      swap1\n      pop\n        /* \"#utility.yul\":4571:4574   */\n      dup1\n        /* \"#utility.yul\":4568:4569   */\n      dup3\n        /* \"#utility.yul\":4565:4575   */\n      gt\n        /* \"#utility.yul\":4562:4598   */\n      iszero\n      tag_136\n      jumpi\n        /* \"#utility.yul\":4578:4596   */\n      tag_137\n      tag_77\n      jump\t// in\n    tag_137:\n        /* \"#utility.yul\":4562:4598   */\n    tag_136:\n        /* \"#utility.yul\":4414:4605   */\n      swap3\n      swap2\n      pop\n      pop\n      jump\t// out\n        /* \"#utility.yul\":4611:5021   */\n    tag_51:\n        /* \"#utility.yul\":4651:4658   */\n      0x00\n        /* \"#utility.yul\":4674:4694   */\n      tag_139\n        /* \"#utility.yul\":4692:4693   */\n      dup3\n        /* \"#utility.yul\":4674:4694   */\n      tag_61\n      jump\t// in\n    tag_139:\n        /* \"#utility.yul\":4669:4694   */\n      swap2\n      pop\n        /* \"#utility.yul\":4708:4728   */\n      tag_140\n        /* \"#utility.yul\":4726:4727   */\n      dup4\n        /* \"#utility.yul\":4708:4728   */\n      tag_61\n      jump\t// in\n    tag_140:\n        /* \"#utility.yul\":4703:4728   */\n      swap3\n      pop\n        /* \"#utility.yul\":4763:4764   */\n      dup3\n        /* \"#utility.yul\":4760:4761   */\n      dup3\n        /* \"#utility.yul\":4756:4765   */\n      mul\n        /* \"#utility.yul\":4785:4815   */\n      tag_141\n        /* \"#utility.yul\":4803:4814   */\n      dup2\n        /* \"#utility.yul\":4785:4815   */\n      tag_61\n      jump\t// in\n    tag_141:\n        /* \"#utility.yul\":4774:4815   */\n      swap2\n      pop\n        /* \"#utility.yul\":4964:4965   */\n      dup3\n        /* \"#utility.yul\":4955:4962   */\n      dup3\n        /* \"#utility.yul\":4951:4966   */\n      div\n        /* \"#utility.yul\":4948:4949   */\n      dup5\n        /* \"#utility.yul\":4945:4967   */\n      eq\n        /* \"#utility.yul\":4925:4926   */\n      dup4\n        /* \"#utility.yul\":4918:4927   */\n      iszero\n        /* \"#utility.yul\":4898:4981   */\n      or\n        /* \"#utility.yul\":4875:5014   */\n      tag_142\n      jumpi\n        /* \"#utility.yul\":4994:5012   */\n      tag_143\n      tag_77\n      jump\t// in\n    tag_143:\n        /* \"#utility.yul\":4875:5014   */\n    tag_142:\n        /* \"#utility.yul\":4659:5021   */\n      pop\n        /* \"#utility.yul\":4611:5021   */\n      swap3\n      swap2\n      pop\n      pop\n      jump\t// out\n        /* \"#utility.yul\":5027:5207   */\n    tag_78:\n        /* \"#utility.yul\":5075:5152   */\n      0x4e487b7100000000000000000000000000000000000000000000000000000000\n        /* \"#utility.yul\":5072:5073   */\n      0x00\n        /* \"#utility.yul\":5065:5153   */\n      mstore\n        /* \"#utility.yul\":5172:5176   */\n      0x12\n        /* \"#utility.yul\":5169:5170   */\n      0x04\n        /* \"#utility.yul\":5162:5177   */\n      mstore\n        /* \"#utility.yul\":5196:5200   */\n      0x24\n        /* \"#utility.yul\":5193:5194   */\n      0x00\n        /* \"#utility.yul\":5186:5201   */\n      revert\n        /* \"#utility.yul\":5213:5398   */\n    tag_53:\n        /* \"#utility.yul\":5253:5254   */\n      0x00\n        /* \"#utility.yul\":5270:5290   */\n      tag_146\n        /* \"#utility.yul\":5288:5289   */\n      dup3\n        /* \"#utility.yul\":5270:5290   */\n      tag_61\n      jump\t// in\n    tag_146:\n        /* \"#utility.yul\":5265:5290   */\n      swap2\n      pop\n        /* \"#utility.yul\":5304:5324   */\n      tag_147\n        /* \"#utility.yul\":5322:5323   */\n      dup4\n        /* \"#utility.yul\":5304:5324   */\n      tag_61\n      jump\t// in\n    tag_147:\n        /* \"#utility.yul\":5299:5324   */\n      swap3\n      pop\n        /* \"#utility.yul\":5343:5344   */\n      dup3\n        /* \"#utility.yul\":5333:5368   */\n      tag_148\n      jumpi\n        /* \"#utility.yul\":5348:5366   */\n      tag_149\n      tag_78\n      jump\t// in\n    tag_149:\n        /* \"#utility.yul\":5333:5368   */\n    tag_148:\n        /* \"#utility.yul\":5390:5391   */\n      dup3\n        /* \"#utility.yul\":5387:5388   */\n      dup3\n        /* \"#utility.yul\":5383:5392   */\n      div\n        /* \"#utility.yul\":5378:5392   */\n      swap1\n      pop\n        /* \"#utility.yul\":5213:5398   */\n      swap3\n      swap2\n      pop\n      pop\n      jump\t// out\n        /* \"#utility.yul\":5404:5509   */\n    tag_79:\n        /* \"#utility.yul\":5440:5447   */\n      0x00\n        /* \"#utility.yul\":5480:5502   */\n      0xffffffffffffffffffff\n        /* \"#utility.yul\":5473:5478   */\n      dup3\n        /* \"#utility.yul\":5469:5503   */\n      and\n        /* \"#utility.yul\":5458:5503   */\n      swap1\n      pop\n        /* \"#utility.yul\":5404:5509   */\n      swap2\n      swap1\n      pop\n      jump\t// out\n        /* \"#utility.yul\":5515:5635   */\n    tag_80:\n        /* \"#utility.yul\":5587:5610   */\n      tag_152\n        /* \"#utility.yul\":5604:5609   */\n      dup2\n        /* \"#utility.yul\":5587:5610   */\n      tag_79\n      jump\t// in\n    tag_152:\n        /* \"#utility.yul\":5580:5585   */\n      dup2\n        /* \"#utility.yul\":5577:5611   */\n      eq\n        /* \"#utility.yul\":5567:5629   */\n      tag_153\n      jumpi\n        /* \"#utility.yul\":5625:5626   */\n      0x00\n        /* \"#utility.yul\":5622:5623   */\n      0x00\n        /* \"#utility.yul\":5615:5627   */\n      revert\n        /* \"#utility.yul\":5567:5629   */\n    tag_153:\n        /* \"#utility.yul\":5515:5635   */\n      pop\n      jump\t// out\n        /* \"#utility.yul\":5641:5782   */\n    tag_81:\n        /* \"#utility.yul\":5697:5702   */\n      0x00\n        /* \"#utility.yul\":5728:5734   */\n      dup2\n        /* \"#utility.yul\":5722:5735   */\n      mload\n        /* \"#utility.yul\":5713:5735   */\n      swap1\n      pop\n        /* \"#utility.yul\":5744:5776   */\n      tag_155\n        /* \"#utility.yul\":5770:5775   */\n      dup2\n        /* \"#utility.yul\":5744:5776   */\n      tag_80\n      jump\t// in\n    tag_155:\n        /* \"#utility.yul\":5641:5782   */\n      swap3\n      swap2\n      pop\n      pop\n      jump\t// out\n        /* \"#utility.yul\":5788:5864   */\n    tag_82:\n        /* \"#utility.yul\":5824:5831   */\n      0x00\n        /* \"#utility.yul\":5853:5858   */\n      dup2\n        /* \"#utility.yul\":5842:5858   */\n      swap1\n      pop\n        /* \"#utility.yul\":5788:5864   */\n      swap2\n      swap1\n      pop\n      jump\t// out\n        /* \"#utility.yul\":5870:5990   */\n    tag_83:\n        /* \"#utility.yul\":5942:5965   */\n      tag_158\n        /* \"#utility.yul\":5959:5964   */\n      dup2\n        /* \"#utility.yul\":5942:5965   */\n      tag_82\n      jump\t// in\n    tag_158:\n        /* \"#utility.yul\":5935:5940   */\n      dup2\n        /* \"#utility.yul\":5932:5966   */\n      eq\n        /* \"#utility.yul\":5922:5984   */\n      tag_159\n      jumpi\n        /* \"#utility.yul\":5980:5981   */\n      0x00\n        /* \"#utility.yul\":5977:5978   */\n      0x00\n        /* \"#utility.yul\":5970:5982   */\n      revert\n        /* \"#utility.yul\":5922:5984   */\n    tag_159:\n        /* \"#utility.yul\":5870:5990   */\n      pop\n      jump\t// out\n        /* \"#utility.yul\":5996:6137   */\n    tag_84:\n        /* \"#utility.yul\":6052:6057   */\n      0x00\n        /* \"#utility.yul\":6083:6089   */\n      dup2\n        /* \"#utility.yul\":6077:6090   */\n      mload\n        /* \"#utility.yul\":6068:6090   */\n      swap1\n      pop\n        /* \"#utility.yul\":6099:6131   */\n      tag_161\n        /* \"#utility.yul\":6125:6130   */\n      dup2\n        /* \"#utility.yul\":6099:6131   */\n      tag_83\n      jump\t// in\n    tag_161:\n        /* \"#utility.yul\":5996:6137   */\n      swap3\n      swap2\n      pop\n      pop\n      jump\t// out\n        /* \"#utility.yul\":6143:7114   */\n    tag_58:\n        /* \"#utility.yul\":6246:6252   */\n      0x00\n        /* \"#utility.yul\":6254:6260   */\n      0x00\n        /* \"#utility.yul\":6262:6268   */\n      0x00\n        /* \"#utility.yul\":6270:6276   */\n      0x00\n        /* \"#utility.yul\":6278:6284   */\n      0x00\n        /* \"#utility.yul\":6327:6330   */\n      0xa0\n        /* \"#utility.yul\":6315:6324   */\n      dup7\n        /* \"#utility.yul\":6306:6313   */\n      dup9\n        /* \"#utility.yul\":6302:6325   */\n      sub\n        /* \"#utility.yul\":6298:6331   */\n      slt\n        /* \"#utility.yul\":6295:6415   */\n      iszero\n      tag_163\n      jumpi\n        /* \"#utility.yul\":6334:6413   */\n      tag_164\n      tag_64\n      jump\t// in\n    tag_164:\n        /* \"#utility.yul\":6295:6415   */\n    tag_163:\n        /* \"#utility.yul\":6454:6455   */\n      0x00\n        /* \"#utility.yul\":6479:6542   */\n      tag_165\n        /* \"#utility.yul\":6534:6541   */\n      dup9\n        /* \"#utility.yul\":6525:6531   */\n      dup3\n        /* \"#utility.yul\":6514:6523   */\n      dup10\n        /* \"#utility.yul\":6510:6532   */\n      add\n        /* \"#utility.yul\":6479:6542   */\n      tag_81\n      jump\t// in\n    tag_165:\n        /* \"#utility.yul\":6469:6542   */\n      swap6\n      pop\n        /* \"#utility.yul\":6425:6552   */\n      pop\n        /* \"#utility.yul\":6591:6593   */\n      0x20\n        /* \"#utility.yul\":6617:6680   */\n      tag_166\n        /* \"#utility.yul\":6672:6679   */\n      dup9\n        /* \"#utility.yul\":6663:6669   */\n      dup3\n        /* \"#utility.yul\":6652:6661   */\n      dup10\n        /* \"#utility.yul\":6648:6670   */\n      add\n        /* \"#utility.yul\":6617:6680   */\n      tag_84\n      jump\t// in\n    tag_166:\n        /* \"#utility.yul\":6607:6680   */\n      swap5\n      pop\n        /* \"#utility.yul\":6562:6690   */\n      pop\n        /* \"#utility.yul\":6729:6731   */\n      0x40\n        /* \"#utility.yul\":6755:6819   */\n      tag_167\n        /* \"#utility.yul\":6811:6818   */\n      dup9\n        /* \"#utility.yul\":6802:6808   */\n      dup3\n        /* \"#utility.yul\":6791:6800   */\n      dup10\n        /* \"#utility.yul\":6787:6809   */\n      add\n        /* \"#utility.yul\":6755:6819   */\n      tag_73\n      jump\t// in\n    tag_167:\n        /* \"#utility.yul\":6745:6819   */\n      swap4\n      pop\n        /* \"#utility.yul\":6700:6829   */\n      pop\n        /* \"#utility.yul\":6868:6870   */\n      0x60\n        /* \"#utility.yul\":6894:6958   */\n      tag_168\n        /* \"#utility.yul\":6950:6957   */\n      dup9\n        /* \"#utility.yul\":6941:6947   */\n      dup3\n        /* \"#utility.yul\":6930:6939   */\n      dup10\n        /* \"#utility.yul\":6926:6948   */\n      add\n        /* \"#utility.yul\":6894:6958   */\n      tag_73\n      jump\t// in\n    tag_168:\n        /* \"#utility.yul\":6884:6958   */\n      swap3\n      pop\n        /* \"#utility.yul\":6839:6968   */\n      pop\n        /* \"#utility.yul\":7007:7010   */\n      0x80\n        /* \"#utility.yul\":7034:7097   */\n      tag_169\n        /* \"#utility.yul\":7089:7096   */\n      dup9\n        /* \"#utility.yul\":7080:7086   */\n      dup3\n        /* \"#utility.yul\":7069:7078   */\n      dup10\n        /* \"#utility.yul\":7065:7087   */\n      add\n        /* \"#utility.yul\":7034:7097   */\n      tag_81\n      jump\t// in\n    tag_169:\n        /* \"#utility.yul\":7024:7097   */\n      swap2\n      pop\n        /* \"#utility.yul\":6978:7107   */\n      pop\n        /* \"#utility.yul\":6143:7114   */\n      swap3\n      swap6\n      pop\n      swap3\n      swap6\n      swap1\n      swap4\n      pop\n      jump\t// out\n        /* \"#utility.yul\":7120:7676   */\n    tag_60:\n        /* \"#utility.yul\":7159:7166   */\n      0x00\n        /* \"#utility.yul\":7182:7201   */\n      tag_171\n        /* \"#utility.yul\":7199:7200   */\n      dup3\n        /* \"#utility.yul\":7182:7201   */\n      tag_82\n      jump\t// in\n    tag_171:\n        /* \"#utility.yul\":7177:7201   */\n      swap2\n      pop\n        /* \"#utility.yul\":7215:7234   */\n      tag_172\n        /* \"#utility.yul\":7232:7233   */\n      dup4\n        /* \"#utility.yul\":7215:7234   */\n      tag_82\n      jump\t// in\n    tag_172:\n        /* \"#utility.yul\":7210:7234   */\n      swap3\n      pop\n        /* \"#utility.yul\":7269:7270   */\n      dup3\n        /* \"#utility.yul\":7266:7267   */\n      dup3\n        /* \"#utility.yul\":7262:7271   */\n      mul\n        /* \"#utility.yul\":7291:7320   */\n      tag_173\n        /* \"#utility.yul\":7308:7319   */\n      dup2\n        /* \"#utility.yul\":7291:7320   */\n      tag_82\n      jump\t// in\n    tag_173:\n        /* \"#utility.yul\":7280:7320   */\n      swap2\n      pop\n        /* \"#utility.yul\":7378:7444   */\n      0x8000000000000000000000000000000000000000000000000000000000000000\n        /* \"#utility.yul\":7375:7376   */\n      dup5\n        /* \"#utility.yul\":7372:7445   */\n      eq\n        /* \"#utility.yul\":7368:7369   */\n      0x00\n        /* \"#utility.yul\":7365:7366   */\n      dup5\n        /* \"#utility.yul\":7361:7370   */\n      slt\n        /* \"#utility.yul\":7357:7446   */\n      and\n        /* \"#utility.yul\":7354:7469   */\n      iszero\n      tag_174\n      jumpi\n        /* \"#utility.yul\":7449:7467   */\n      tag_175\n      tag_77\n      jump\t// in\n    tag_175:\n        /* \"#utility.yul\":7354:7469   */\n    tag_174:\n        /* \"#utility.yul\":7619:7620   */\n      dup3\n        /* \"#utility.yul\":7610:7617   */\n      dup3\n        /* \"#utility.yul\":7605:7621   */\n      sdiv\n        /* \"#utility.yul\":7602:7603   */\n      dup5\n        /* \"#utility.yul\":7599:7622   */\n      eq\n        /* \"#utility.yul\":7579:7580   */\n      dup4\n        /* \"#utility.yul\":7572:7581   */\n      iszero\n        /* \"#utility.yul\":7552:7636   */\n      or\n        /* \"#utility.yul\":7529:7669   */\n      tag_176\n      jumpi\n        /* \"#utility.yul\":7649:7667   */\n      tag_177\n      tag_77\n      jump\t// in\n    tag_177:\n        /* \"#utility.yul\":7529:7669   */\n    tag_176:\n        /* \"#utility.yul\":7167:7676   */\n      pop\n        /* \"#utility.yul\":7120:7676   */\n      swap3\n      swap2\n      pop\n      pop\n      jump\t// out\n\n    auxdata: 0xa2646970667358221220d03ba142936391b34049cdb701b73ac50ae39f8aa85523539a5a6ed1effae43b64736f6c634300081c0033\n}\n",
				"bytecode": {
					"linkReferences": {},
					"object": "6080604052674563918244f400005f553480156019575f5ffd5b50610895806100275f395ff3fe608060405260043610610049575f3560e01c8063098de8201461004d5780630d8e6e2c146100775780633e47d6f3146100a1578063b60d4288146100dd578063dc0d3dff146100e7575b5f5ffd5b348015610058575f5ffd5b50610061610123565b60405161006e919061042c565b60405180910390f35b348015610082575f5ffd5b5061008b610128565b604051610098919061042c565b60405180910390f35b3480156100ac575f5ffd5b506100c760048036038101906100c291906104a3565b6101af565b6040516100d4919061042c565b60405180910390f35b6100e56101c4565b005b3480156100f2575f5ffd5b5061010d600480360381019061010891906104f8565b6102fc565b60405161011a9190610532565b60405180910390f35b5f5481565b5f73694aa1769357215de4fac081bf1f309adc32530673ffffffffffffffffffffffffffffffffffffffff166354fd4d506040518163ffffffff1660e01b8152600401602060405180830381865afa158015610186573d5f5f3e3d5ffd5b505050506040513d601f19601f820116820180604052508101906101aa919061055f565b905090565b6002602052805f5260405f205f915090505481565b5f546101cf34610337565b1015610210576040517f08c379a0000000000000000000000000000000000000000000000000000000008152600401610207906105e4565b60405180910390fd5b600133908060018154018082558091505060019003905f5260205f20015f9091909190916101000a81548173ffffffffffffffffffffffffffffffffffffffff021916908373ffffffffffffffffffffffffffffffffffffffff1602179055503460025f3373ffffffffffffffffffffffffffffffffffffffff1673ffffffffffffffffffffffffffffffffffffffff1681526020019081526020015f20546102b9919061062f565b60025f3373ffffffffffffffffffffffffffffffffffffffff1673ffffffffffffffffffffffffffffffffffffffff1681526020019081526020015f2081905550565b6001818154811061030b575f80fd5b905f5260205f20015f915054906101000a900473ffffffffffffffffffffffffffffffffffffffff1681565b5f5f61034161036f565b90505f670de0b6b3a764000084836103599190610662565b61036391906106d0565b90508092505050919050565b5f5f73694aa1769357215de4fac081bf1f309adc32530690505f8173ffffffffffffffffffffffffffffffffffffffff1663feaf968c6040518163ffffffff1660e01b815260040160a060405180830381865afa1580156103d2573d5f5f3e3d5ffd5b505050506040513d601f19601f820116820180604052508101906103f69190610772565b5050509150506402540be4008161040d91906107e9565b9250505090565b5f819050919050565b61042681610414565b82525050565b5f60208201905061043f5f83018461041d565b92915050565b5f5ffd5b5f73ffffffffffffffffffffffffffffffffffffffff82169050919050565b5f61047282610449565b9050919050565b61048281610468565b811461048c575f5ffd5b50565b5f8135905061049d81610479565b92915050565b5f602082840312156104b8576104b7610445565b5b5f6104c58482850161048f565b91505092915050565b6104d781610414565b81146104e1575f5ffd5b50565b5f813590506104f2816104ce565b92915050565b5f6020828403121561050d5761050c610445565b5b5f61051a848285016104e4565b91505092915050565b61052c81610468565b82525050565b5f6020820190506105455f830184610523565b92915050565b5f81519050610559816104ce565b92915050565b5f6020828403121561057457610573610445565b5b5f6105818482850161054b565b91505092915050565b5f82825260208201905092915050565b7f4469646e27742073656e6420656e6f75676820455448210000000000000000005f82015250565b5f6105ce60178361058a565b91506105d98261059a565b602082019050919050565b5f6020820190508181035f8301526105fb816105c2565b9050919050565b7f4e487b71000000000000000000000000000000000000000000000000000000005f52601160045260245ffd5b5f61063982610414565b915061064483610414565b925082820190508082111561065c5761065b610602565b5b92915050565b5f61066c82610414565b915061067783610414565b925082820261068581610414565b9150828204841483151761069c5761069b610602565b5b5092915050565b7f4e487b71000000000000000000000000000000000000000000000000000000005f52601260045260245ffd5b5f6106da82610414565b91506106e583610414565b9250826106f5576106f46106a3565b5b828204905092915050565b5f69ffffffffffffffffffff82169050919050565b61071e81610700565b8114610728575f5ffd5b50565b5f8151905061073981610715565b92915050565b5f819050919050565b6107518161073f565b811461075b575f5ffd5b50565b5f8151905061076c81610748565b92915050565b5f5f5f5f5f60a0868803121561078b5761078a610445565b5b5f6107988882890161072b565b95505060206107a98882890161075e565b94505060406107ba8882890161054b565b93505060606107cb8882890161054b565b92505060806107dc8882890161072b565b9150509295509295909350565b5f6107f38261073f565b91506107fe8361073f565b925082820261080c8161073f565b91507f800000000000000000000000000000000000000000000000000000000000000084145f8412161561084357610842610602565b5b828205841483151761085857610857610602565b5b509291505056fea2646970667358221220d03ba142936391b34049cdb701b73ac50ae39f8aa85523539a5a6ed1effae43b64736f6c634300081c0033",
					"opcodes": "PUSH1 0x80 PUSH1 0x40 MSTORE PUSH8 0x4563918244F40000 PUSH0 SSTORE CALLVALUE DUP1 ISZERO PUSH1 0x19 JUMPI PUSH0 PUSH0 REVERT JUMPDEST POP PUSH2 0x895 DUP1 PUSH2 0x27 PUSH0 CODECOPY PUSH0 RETURN INVALID PUSH1 0x80 PUSH1 0x40 MSTORE PUSH1 0x4 CALLDATASIZE LT PUSH2 0x49 JUMPI PUSH0 CALLDATALOAD PUSH1 0xE0 SHR DUP1 PUSH4 0x98DE820 EQ PUSH2 0x4D JUMPI DUP1 PUSH4 0xD8E6E2C EQ PUSH2 0x77 JUMPI DUP1 PUSH4 0x3E47D6F3 EQ PUSH2 0xA1 JUMPI DUP1 PUSH4 0xB60D4288 EQ PUSH2 0xDD JUMPI DUP1 PUSH4 0xDC0D3DFF EQ PUSH2 0xE7 JUMPI JUMPDEST PUSH0 PUSH0 REVERT JUMPDEST CALLVALUE DUP1 ISZERO PUSH2 0x58 JUMPI PUSH0 PUSH0 REVERT JUMPDEST POP PUSH2 0x61 PUSH2 0x123 JUMP JUMPDEST PUSH1 0x40 MLOAD PUSH2 0x6E SWAP2 SWAP1 PUSH2 0x42C JUMP JUMPDEST PUSH1 0x40 MLOAD DUP1 SWAP2 SUB SWAP1 RETURN JUMPDEST CALLVALUE DUP1 ISZERO PUSH2 0x82 JUMPI PUSH0 PUSH0 REVERT JUMPDEST POP PUSH2 0x8B PUSH2 0x128 JUMP JUMPDEST PUSH1 0x40 MLOAD PUSH2 0x98 SWAP2 SWAP1 PUSH2 0x42C JUMP JUMPDEST PUSH1 0x40 MLOAD DUP1 SWAP2 SUB SWAP1 RETURN JUMPDEST CALLVALUE DUP1 ISZERO PUSH2 0xAC JUMPI PUSH0 PUSH0 REVERT JUMPDEST POP PUSH2 0xC7 PUSH1 0x4 DUP1 CALLDATASIZE SUB DUP2 ADD SWAP1 PUSH2 0xC2 SWAP2 SWAP1 PUSH2 0x4A3 JUMP JUMPDEST PUSH2 0x1AF JUMP JUMPDEST PUSH1 0x40 MLOAD PUSH2 0xD4 SWAP2 SWAP1 PUSH2 0x42C JUMP JUMPDEST PUSH1 0x40 MLOAD DUP1 SWAP2 SUB SWAP1 RETURN JUMPDEST PUSH2 0xE5 PUSH2 0x1C4 JUMP JUMPDEST STOP JUMPDEST CALLVALUE DUP1 ISZERO PUSH2 0xF2 JUMPI PUSH0 PUSH0 REVERT JUMPDEST POP PUSH2 0x10D PUSH1 0x4 DUP1 CALLDATASIZE SUB DUP2 ADD SWAP1 PUSH2 0x108 SWAP2 SWAP1 PUSH2 0x4F8 JUMP JUMPDEST PUSH2 0x2FC JUMP JUMPDEST PUSH1 0x40 MLOAD PUSH2 0x11A SWAP2 SWAP1 PUSH2 0x532 JUMP JUMPDEST PUSH1 0x40 MLOAD DUP1 SWAP2 SUB SWAP1 RETURN JUMPDEST PUSH0 SLOAD DUP2 JUMP JUMPDEST PUSH0 PUSH20 0x694AA1769357215DE4FAC081BF1F309ADC325306 PUSH20 0xFFFFFFFFFFFFFFFFFFFFFFFFFFFFFFFFFFFFFFFF AND PUSH4 0x54FD4D50 PUSH1 0x40 MLOAD DUP2 PUSH4 0xFFFFFFFF AND PUSH1 0xE0 SHL DUP2 MSTORE PUSH1 0x4 ADD PUSH1 0x20 PUSH1 0x40 MLOAD DUP1 DUP4 SUB DUP2 DUP7 GAS STATICCALL ISZERO DUP1 ISZERO PUSH2 0x186 JUMPI RETURNDATASIZE PUSH0 PUSH0 RETURNDATACOPY RETURNDATASIZE PUSH0 REVERT JUMPDEST POP POP POP POP PUSH1 0x40 MLOAD RETURNDATASIZE PUSH1 0x1F NOT PUSH1 0x1F DUP3 ADD AND DUP3 ADD DUP1 PUSH1 0x40 MSTORE POP DUP2 ADD SWAP1 PUSH2 0x1AA SWAP2 SWAP1 PUSH2 0x55F JUMP JUMPDEST SWAP1 POP SWAP1 JUMP JUMPDEST PUSH1 0x2 PUSH1 0x20 MSTORE DUP1 PUSH0 MSTORE PUSH1 0x40 PUSH0 KECCAK256 PUSH0 SWAP2 POP SWAP1 POP SLOAD DUP2 JUMP JUMPDEST PUSH0 SLOAD PUSH2 0x1CF CALLVALUE PUSH2 0x337 JUMP JUMPDEST LT ISZERO PUSH2 0x210 JUMPI PUSH1 0x40 MLOAD PUSH32 0x8C379A000000000000000000000000000000000000000000000000000000000 DUP2 MSTORE PUSH1 0x4 ADD PUSH2 0x207 SWAP1 PUSH2 0x5E4 JUMP JUMPDEST PUSH1 0x40 MLOAD DUP1 SWAP2 SUB SWAP1 REVERT JUMPDEST PUSH1 0x1 CALLER SWAP1 DUP1 PUSH1 0x1 DUP2 SLOAD ADD DUP1 DUP3 SSTORE DUP1 SWAP2 POP POP PUSH1 0x1 SWAP1 SUB SWAP1 PUSH0 MSTORE PUSH1 0x20 PUSH0 KECCAK256 ADD PUSH0 SWAP1 SWAP2 SWAP1 SWAP2 SWAP1 SWAP2 PUSH2 0x100 EXP DUP2 SLOAD DUP2 PUSH20 0xFFFFFFFFFFFFFFFFFFFFFFFFFFFFFFFFFFFFFFFF MUL NOT AND SWAP1 DUP4 PUSH20 0xFFFFFFFFFFFFFFFFFFFFFFFFFFFFFFFFFFFFFFFF AND MUL OR SWAP1 SSTORE POP CALLVALUE PUSH1 0x2 PUSH0 CALLER PUSH20 0xFFFFFFFFFFFFFFFFFFFFFFFFFFFFFFFFFFFFFFFF AND PUSH20 0xFFFFFFFFFFFFFFFFFFFFFFFFFFFFFFFFFFFFFFFF AND DUP2 MSTORE PUSH1 0x20 ADD SWAP1 DUP2 MSTORE PUSH1 0x20 ADD PUSH0 KECCAK256 SLOAD PUSH2 0x2B9 SWAP2 SWAP1 PUSH2 0x62F JUMP JUMPDEST PUSH1 0x2 PUSH0 CALLER PUSH20 0xFFFFFFFFFFFFFFFFFFFFFFFFFFFFFFFFFFFFFFFF AND PUSH20 0xFFFFFFFFFFFFFFFFFFFFFFFFFFFFFFFFFFFFFFFF AND DUP2 MSTORE PUSH1 0x20 ADD SWAP1 DUP2 MSTORE PUSH1 0x20 ADD PUSH0 KECCAK256 DUP2 SWAP1 SSTORE POP JUMP JUMPDEST PUSH1 0x1 DUP2 DUP2 SLOAD DUP2 LT PUSH2 0x30B JUMPI PUSH0 DUP1 REVERT JUMPDEST SWAP1 PUSH0 MSTORE PUSH1 0x20 PUSH0 KECCAK256 ADD PUSH0 SWAP2 POP SLOAD SWAP1 PUSH2 0x100 EXP SWAP1 DIV PUSH20 0xFFFFFFFFFFFFFFFFFFFFFFFFFFFFFFFFFFFFFFFF AND DUP2 JUMP JUMPDEST PUSH0 PUSH0 PUSH2 0x341 PUSH2 0x36F JUMP JUMPDEST SWAP1 POP PUSH0 PUSH8 0xDE0B6B3A7640000 DUP5 DUP4 PUSH2 0x359 SWAP2 SWAP1 PUSH2 0x662 JUMP JUMPDEST PUSH2 0x363 SWAP2 SWAP1 PUSH2 0x6D0 JUMP JUMPDEST SWAP1 POP DUP1 SWAP3 POP POP POP SWAP2 SWAP1 POP JUMP JUMPDEST PUSH0 PUSH0 PUSH20 0x694AA1769357215DE4FAC081BF1F309ADC325306 SWAP1 POP PUSH0 DUP2 PUSH20 0xFFFFFFFFFFFFFFFFFFFFFFFFFFFFFFFFFFFFFFFF AND PUSH4 0xFEAF968C PUSH1 0x40 MLOAD DUP2 PUSH4 0xFFFFFFFF AND PUSH1 0xE0 SHL DUP2 MSTORE PUSH1 0x4 ADD PUSH1 0xA0 PUSH1 0x40 MLOAD DUP1 DUP4 SUB DUP2 DUP7 GAS STATICCALL ISZERO DUP1 ISZERO PUSH2 0x3D2 JUMPI RETURNDATASIZE PUSH0 PUSH0 RETURNDATACOPY RETURNDATASIZE PUSH0 REVERT JUMPDEST POP POP POP POP PUSH1 0x40 MLOAD RETURNDATASIZE PUSH1 0x1F NOT PUSH1 0x1F DUP3 ADD AND DUP3 ADD DUP1 PUSH1 0x40 MSTORE POP DUP2 ADD SWAP1 PUSH2 0x3F6 SWAP2 SWAP1 PUSH2 0x772 JUMP JUMPDEST POP POP POP SWAP2 POP POP PUSH5 0x2540BE400 DUP2 PUSH2 0x40D SWAP2 SWAP1 PUSH2 0x7E9 JUMP JUMPDEST SWAP3 POP POP POP SWAP1 JUMP JUMPDEST PUSH0 DUP2 SWAP1 POP SWAP2 SWAP1 POP JUMP JUMPDEST PUSH2 0x426 DUP2 PUSH2 0x414 JUMP JUMPDEST DUP3 MSTORE POP POP JUMP JUMPDEST PUSH0 PUSH1 0x20 DUP3 ADD SWAP1 POP PUSH2 0x43F PUSH0 DUP4 ADD DUP5 PUSH2 0x41D JUMP JUMPDEST SWAP3 SWAP2 POP POP JUMP JUMPDEST PUSH0 PUSH0 REVERT JUMPDEST PUSH0 PUSH20 0xFFFFFFFFFFFFFFFFFFFFFFFFFFFFFFFFFFFFFFFF DUP3 AND SWAP1 POP SWAP2 SWAP1 POP JUMP JUMPDEST PUSH0 PUSH2 0x472 DUP3 PUSH2 0x449 JUMP JUMPDEST SWAP1 POP SWAP2 SWAP1 POP JUMP JUMPDEST PUSH2 0x482 DUP2 PUSH2 0x468 JUMP JUMPDEST DUP2 EQ PUSH2 0x48C JUMPI PUSH0 PUSH0 REVERT JUMPDEST POP JUMP JUMPDEST PUSH0 DUP2 CALLDATALOAD SWAP1 POP PUSH2 0x49D DUP2 PUSH2 0x479 JUMP JUMPDEST SWAP3 SWAP2 POP POP JUMP JUMPDEST PUSH0 PUSH1 0x20 DUP3 DUP5 SUB SLT ISZERO PUSH2 0x4B8 JUMPI PUSH2 0x4B7 PUSH2 0x445 JUMP JUMPDEST JUMPDEST PUSH0 PUSH2 0x4C5 DUP5 DUP3 DUP6 ADD PUSH2 0x48F JUMP JUMPDEST SWAP2 POP POP SWAP3 SWAP2 POP POP JUMP JUMPDEST PUSH2 0x4D7 DUP2 PUSH2 0x414 JUMP JUMPDEST DUP2 EQ PUSH2 0x4E1 JUMPI PUSH0 PUSH0 REVERT JUMPDEST POP JUMP JUMPDEST PUSH0 DUP2 CALLDATALOAD SWAP1 POP PUSH2 0x4F2 DUP2 PUSH2 0x4CE JUMP JUMPDEST SWAP3 SWAP2 POP POP JUMP JUMPDEST PUSH0 PUSH1 0x20 DUP3 DUP5 SUB SLT ISZERO PUSH2 0x50D JUMPI PUSH2 0x50C PUSH2 0x445 JUMP JUMPDEST JUMPDEST PUSH0 PUSH2 0x51A DUP5 DUP3 DUP6 ADD PUSH2 0x4E4 JUMP JUMPDEST SWAP2 POP POP SWAP3 SWAP2 POP POP JUMP JUMPDEST PUSH2 0x52C DUP2 PUSH2 0x468 JUMP JUMPDEST DUP3 MSTORE POP POP JUMP JUMPDEST PUSH0 PUSH1 0x20 DUP3 ADD SWAP1 POP PUSH2 0x545 PUSH0 DUP4 ADD DUP5 PUSH2 0x523 JUMP JUMPDEST SWAP3 SWAP2 POP POP JUMP JUMPDEST PUSH0 DUP2 MLOAD SWAP1 POP PUSH2 0x559 DUP2 PUSH2 0x4CE JUMP JUMPDEST SWAP3 SWAP2 POP POP JUMP JUMPDEST PUSH0 PUSH1 0x20 DUP3 DUP5 SUB SLT ISZERO PUSH2 0x574 JUMPI PUSH2 0x573 PUSH2 0x445 JUMP JUMPDEST JUMPDEST PUSH0 PUSH2 0x581 DUP5 DUP3 DUP6 ADD PUSH2 0x54B JUMP JUMPDEST SWAP2 POP POP SWAP3 SWAP2 POP POP JUMP JUMPDEST PUSH0 DUP3 DUP3 MSTORE PUSH1 0x20 DUP3 ADD SWAP1 POP SWAP3 SWAP2 POP POP JUMP JUMPDEST PUSH32 0x4469646E27742073656E6420656E6F7567682045544821000000000000000000 PUSH0 DUP3 ADD MSTORE POP JUMP JUMPDEST PUSH0 PUSH2 0x5CE PUSH1 0x17 DUP4 PUSH2 0x58A JUMP JUMPDEST SWAP2 POP PUSH2 0x5D9 DUP3 PUSH2 0x59A JUMP JUMPDEST PUSH1 0x20 DUP3 ADD SWAP1 POP SWAP2 SWAP1 POP JUMP JUMPDEST PUSH0 PUSH1 0x20 DUP3 ADD SWAP1 POP DUP2 DUP2 SUB PUSH0 DUP4 ADD MSTORE PUSH2 0x5FB DUP2 PUSH2 0x5C2 JUMP JUMPDEST SWAP1 POP SWAP2 SWAP1 POP JUMP JUMPDEST PUSH32 0x4E487B7100000000000000000000000000000000000000000000000000000000 PUSH0 MSTORE PUSH1 0x11 PUSH1 0x4 MSTORE PUSH1 0x24 PUSH0 REVERT JUMPDEST PUSH0 PUSH2 0x639 DUP3 PUSH2 0x414 JUMP JUMPDEST SWAP2 POP PUSH2 0x644 DUP4 PUSH2 0x414 JUMP JUMPDEST SWAP3 POP DUP3 DUP3 ADD SWAP1 POP DUP1 DUP3 GT ISZERO PUSH2 0x65C JUMPI PUSH2 0x65B PUSH2 0x602 JUMP JUMPDEST JUMPDEST SWAP3 SWAP2 POP POP JUMP JUMPDEST PUSH0 PUSH2 0x66C DUP3 PUSH2 0x414 JUMP JUMPDEST SWAP2 POP PUSH2 0x677 DUP4 PUSH2 0x414 JUMP JUMPDEST SWAP3 POP DUP3 DUP3 MUL PUSH2 0x685 DUP2 PUSH2 0x414 JUMP JUMPDEST SWAP2 POP DUP3 DUP3 DIV DUP5 EQ DUP4 ISZERO OR PUSH2 0x69C JUMPI PUSH2 0x69B PUSH2 0x602 JUMP JUMPDEST JUMPDEST POP SWAP3 SWAP2 POP POP JUMP JUMPDEST PUSH32 0x4E487B7100000000000000000000000000000000000000000000000000000000 PUSH0 MSTORE PUSH1 0x12 PUSH1 0x4 MSTORE PUSH1 0x24 PUSH0 REVERT JUMPDEST PUSH0 PUSH2 0x6DA DUP3 PUSH2 0x414 JUMP JUMPDEST SWAP2 POP PUSH2 0x6E5 DUP4 PUSH2 0x414 JUMP JUMPDEST SWAP3 POP DUP3 PUSH2 0x6F5 JUMPI PUSH2 0x6F4 PUSH2 0x6A3 JUMP JUMPDEST JUMPDEST DUP3 DUP3 DIV SWAP1 POP SWAP3 SWAP2 POP POP JUMP JUMPDEST PUSH0 PUSH10 0xFFFFFFFFFFFFFFFFFFFF DUP3 AND SWAP1 POP SWAP2 SWAP1 POP JUMP JUMPDEST PUSH2 0x71E DUP2 PUSH2 0x700 JUMP JUMPDEST DUP2 EQ PUSH2 0x728 JUMPI PUSH0 PUSH0 REVERT JUMPDEST POP JUMP JUMPDEST PUSH0 DUP2 MLOAD SWAP1 POP PUSH2 0x739 DUP2 PUSH2 0x715 JUMP JUMPDEST SWAP3 SWAP2 POP POP JUMP JUMPDEST PUSH0 DUP2 SWAP1 POP SWAP2 SWAP1 POP JUMP JUMPDEST PUSH2 0x751 DUP2 PUSH2 0x73F JUMP JUMPDEST DUP2 EQ PUSH2 0x75B JUMPI PUSH0 PUSH0 REVERT JUMPDEST POP JUMP JUMPDEST PUSH0 DUP2 MLOAD SWAP1 POP PUSH2 0x76C DUP2 PUSH2 0x748 JUMP JUMPDEST SWAP3 SWAP2 POP POP JUMP JUMPDEST PUSH0 PUSH0 PUSH0 PUSH0 PUSH0 PUSH1 0xA0 DUP7 DUP9 SUB SLT ISZERO PUSH2 0x78B JUMPI PUSH2 0x78A PUSH2 0x445 JUMP JUMPDEST JUMPDEST PUSH0 PUSH2 0x798 DUP9 DUP3 DUP10 ADD PUSH2 0x72B JUMP JUMPDEST SWAP6 POP POP PUSH1 0x20 PUSH2 0x7A9 DUP9 DUP3 DUP10 ADD PUSH2 0x75E JUMP JUMPDEST SWAP5 POP POP PUSH1 0x40 PUSH2 0x7BA DUP9 DUP3 DUP10 ADD PUSH2 0x54B JUMP JUMPDEST SWAP4 POP POP PUSH1 0x60 PUSH2 0x7CB DUP9 DUP3 DUP10 ADD PUSH2 0x54B JUMP JUMPDEST SWAP3 POP POP PUSH1 0x80 PUSH2 0x7DC DUP9 DUP3 DUP10 ADD PUSH2 0x72B JUMP JUMPDEST SWAP2 POP POP SWAP3 SWAP6 POP SWAP3 SWAP6 SWAP1 SWAP4 POP JUMP JUMPDEST PUSH0 PUSH2 0x7F3 DUP3 PUSH2 0x73F JUMP JUMPDEST SWAP2 POP PUSH2 0x7FE DUP4 PUSH2 0x73F JUMP JUMPDEST SWAP3 POP DUP3 DUP3 MUL PUSH2 0x80C DUP2 PUSH2 0x73F JUMP JUMPDEST SWAP2 POP PUSH32 0x8000000000000000000000000000000000000000000000000000000000000000 DUP5 EQ PUSH0 DUP5 SLT AND ISZERO PUSH2 0x843 JUMPI PUSH2 0x842 PUSH2 0x602 JUMP JUMPDEST JUMPDEST DUP3 DUP3 SDIV DUP5 EQ DUP4 ISZERO OR PUSH2 0x858 JUMPI PUSH2 0x857 PUSH2 0x602 JUMP JUMPDEST JUMPDEST POP SWAP3 SWAP2 POP POP JUMP INVALID LOG2 PUSH5 0x6970667358 0x22 SLT KECCAK256 0xD0 EXTCODESIZE LOG1 TIMESTAMP SWAP4 PUSH4 0x91B34049 0xCD 0xB7 ADD 0xB7 GASPRICE 0xC5 EXP 0xE3 SWAP16 DUP11 0xA8 SSTORE 0x23 MSTORE8 SWAP11 GAS PUSH15 0xD1EFFAE43B64736F6C634300081C00 CALLER "
				},
				"gasEstimates": {
					"creation": {
						"codeDepositCost": "439400",
						"executionCost": "22577",
						"totalCost": "461977"
					},
					"external": {
						"addressToAmountFunded(address)": "2824",
						"fund()": "infinite",
						"funders(uint256)": "5010",
						"getVersion()": "infinite",
						"minimumUsd()": "2402"
					}
				},
				"methodIdentifiers": {
					"addressToAmountFunded(address)": "3e47d6f3",
					"fund()": "b60d4288",
					"funders(uint256)": "dc0d3dff",
					"getVersion()": "0d8e6e2c",
					"minimumUsd()": "098de820"
				}
			},
			"storageLayout": {
				"storage": [
					{
						"astId": 57,
						"contract": "Section 3/FundMe.sol:FundMe",
						"label": "minimumUsd",
						"offset": 0,
						"slot": "0",
						"type": "t_uint256"
					},
					{
						"astId": 60,
						"contract": "Section 3/FundMe.sol:FundMe",
						"label": "funders",
						"offset": 0,
						"slot": "1",
						"type": "t_array(t_address)dyn_storage"
					},
					{
						"astId": 64,
						"contract": "Section 3/FundMe.sol:FundMe",
						"label": "addressToAmountFunded",
						"offset": 0,
						"slot": "2",
						"type": "t_mapping(t_address,t_uint256)"
					}
				],
				"types": {
					"t_address": {
						"encoding": "inplace",
						"label": "address",
						"numberOfBytes": "20"
					},
					"t_array(t_address)dyn_storage": {
						"base": "t_address",
						"encoding": "dynamic_array",
						"label": "address[]",
						"numberOfBytes": "32"
					},
					"t_mapping(t_address,t_uint256)": {
						"encoding": "mapping",
						"key": "t_address",
						"label": "mapping(address => uint256)",
						"numberOfBytes": "32",
						"value": "t_uint256"
					},
					"t_uint256": {
						"encoding": "inplace",
						"label": "uint256",
						"numberOfBytes": "32"
					}
				}
			},
			"userdoc": {
				"kind": "user",
				"methods": {},
				"version": 1
			}
		}
	}
}